:020000040800F2
:10000000A804002001010008DD13000833100008D7
:100010008D1100087F010008B118000800000000E1
:10002000000000000000000000000000731700083E
:10003000970100080000000035140008FD170008B3
:100040001B0100081B0100081B0100081B01000820
:100050001B0100081B0100081B0100081B01000810
:100060001B0100081B0100081B0100081B01000800
:100070001B0100081B0100081B0100081B010008F0
:100080001B0100081B0100081B0100081B010008E0
:100090001B0100081B0100081B0100081B010008D0
:1000A0001B0100081B0100081B0100081B010008C0
:1000B0001B0100081B0100081B0100081B010008B0
:1000C0001B0100081B0100081B0100081B010008A0
:1000D0001B0100081B0100081B0100081B01000890
:1000E0001B0100081B0100081B010008DFF80CD0F1
:1000F00000F02AF80048004779190008A8040020F9
:100100000648804706480047FEE7FEE7FEE7FEE7B1
:10011000FEE7FEE7FEE7FEE7FEE7FEE769180008F8
:10012000ED000008D2B201E000F8012B491EFBD21D
:1001300070470022F6E710B513460A4604461946F2
:10014000FFF7F0FF204610BD064C074D06E0E068C3
:1001500040F0010394E8070098471034AC42F6D30E
:10016000FFF7C8FF401A0008601A000800F00F01EE
:10017000000900EB800001EB4000C0B27047FEE7D1
:100180000A21B0FBF1F201FB1202B0FBF1F042EAEE
:100190000010C0B27047704710B501223B493C487F
:1001A00000F087FD39490122C91C394800F05AFD89
:1001B000364CE41CA078FFF7D9FF0A22B0FBF2F01E
:1001C000334B32331870A078FFF7D0FFB0FBF2F159
:1001D00002FB110058706078FFF7C8FFB0FBF2F027
:1001E000D8706078FFF7C2FFB0FBF2F102FB11009C
:1001F0001871E078FFF7BAFFB0FBF2F01872E07800
:10020000FFF7B4FFB0FBF2F102FB1100E41E5872DD
:100210002078FFF7ABFFB0FBF2F0D8722078FFF741
:10022000A5FFB0FBF2F102FB110018736078FFF735
:100230009DFFB0FBF2F098736078FFF797FFB0FB7B
:10024000F2F102FB1100D873A078FFF78FFFB0FB2B
:10025000F2F05874A078FFF789FFB0FBF2F102FBCF
:1002600011009874207800F00F01000900EB800065
:1002700001EB4001A01F4170617801F00F020909F4
:1002800001EB810102EB4101017010BD060000206D
:100290006000002070B5044600F0F6F80546601CCA
:1002A00002D004480078044400F0EEF8401BA0425D
:1002B000FAD370BD500000202DE9F84FDFF890A16F
:1002C00000220AF1040B144601274FF00F090BF12D
:1002D000040E00BF0B6807FA04F52B40AB4274D143
:1002E000DFF870C14E68A6EB0C0866452BD00DDC1C
:1002F000032E34D005DC36B3012E19D0022E2FD1B7
:100300001BE0112E16D0122E2AD119E0B8F5881F45
:1003100019D006DCB8F5803F15D0B8F5801F1FD185
:1003200011E0B8F5001F0ED0B8F5041F18D10AE08F
:10033000CA6815E0CA68121D12E0CA6808320FE0E8
:10034000CA680C320CE08A682AB1012A4FF0080210
:1003500003D0456104E0042202E0056100E00022D0
:10036000FF2B01D8064601E000F104064FEA8405A0
:1003700001D9A5F12005D6F800C009FA05F82CEA44
:10038000080C02FA05F54CEA050CC6F800C04D68E9
:10039000ED0057D5304DAE6946F00106AE61AD694E
:1003A00024F0030605F0010500952C4D06EB050C25
:1003B000DCF80850A6074FEA167809FA08F6B543A4
:1003C000274EB04202D1002610E03BE0254EB0425D
:1003D00001D101260AE0244EB04201D1022605E0F7
:1003E000224EB04201D1032600E0042606FA08F6A8
:1003F0002E43CCF808604D68DAF80060ED035546EE
:1004000001D51E4300E09E432E604D68DBF800607E
:10041000AD035D4601D51E4300E09E432E604D684E
:10042000DEF80060ED02754601D51E4300E09E43F4
:100430002E604D68AD020E4D2E6801D51E4300E0C2
:100440009E432E60641C102CFFF444AFBDE8F88F6F
:1004500000040140000011100010024000000140A3
:1004600000080140000C0140001001400014014050
:100470000C0401408068084000D0012070470AB198
:10048000016170470904FBE701488068704700007C
:100490005000002002488168027811448160704752
:1004A00050000020074810B5016841F010010160BC
:1004B000032000F067F8002000F006F800F024F8B0
:1004C000002010BD0020024070B50D4D04464FF4D1
:1004D0007A712878B1FBF0F00A490968B1FBF0F0B5
:1004E00000F093FD48B9102C07D200222146501E7F
:1004F00000F028F800206C6070BD012070BD000085
:10050000500000205C0000200C4808B5816941F0D3
:1005100001018161816901F001010091C16941F02E
:100520008051C161C06900F080500090044841686A
:1005300021F0E06141F00071416008BD001002400F
:1005400000000140F0B40E4B1B680C46C3F30223BD
:10055000C3F10705042D00D90425191D072901D26F
:10056000002300E0DB1E012606FA05F1491E2140AA
:1005700099409E40761E16403143F0BC00F02FBFDC
:100580000CED00E0064900F0070208684FF6FF0393
:10059000184040EA0220034A1043086070470000F8
:1005A0000CED00E00000FA050149012008627047E7
:1005B00000000E4210B529A401461DCC86B08DE87E
:1005C0001D002AA02A4C006804900020012923D095
:1005D00002293AD010291DD161682268D20119D5AB
:1005E000C1F38342C9031DF8020009D5616804AA5A
:1005F000C1F34041515C1F4AB2FBF1F1484301E0B5
:100600001D4948436168490204D440005FF003017A
:10061000B0FBF1F006B010BD226AC2F3012101293E
:1006200003D1920701D5C803F4E7022905D1626A14
:10063000920702D549F64040ECE70329EAD1216848
:100640008903E7D54FF22440E4E700F043F96168FD
:10065000C1F38131491C4900DAE7000002030405B7
:10066000060708090A0B0C0D0E0F101001020000FE
:100670000010024000127A0000093D002DE9F84305
:1006800005460078354CC00754D0E0690026C0000C
:1006900008D4E06940F08050E061E069012600F094
:1006A000805000902E480168C90512D40168804628
:1006B00041F480710160FFF7E7FE074605E000BFE7
:1006C000FFF7E2FEC01B642823D8D8F80000C0055D
:1006D000F6D5206A10F4407021D0A98801F4407149
:1006E00081421CD0206A1F49012220F440700A6018
:1006F00000220A602062C00711D0FFF7C5FE07463E
:1007000041F2883808E000BFFFF7BEFEC11B41453B
:1007100002D90320BDE8F883206A8007F4D5206A57
:10072000696820F44070084320621EB1E06920F03F
:100730008050E0612878800705D56068A96820F4BA
:100740004040084360602878C00605D56068E968C5
:1007500020F48000084360600020DBE700100240C6
:1007600000700040400442422DE9F047DFF8548118
:1007700005460E46D8F8000000F00700B0420CD243
:10078000D8F8001021F007013143C8F80010D8F85C
:10079000000000F00700B0426FD128684A4C810782
:1007A00012D5400703D5606840F4E06060602878A7
:1007B000000703D5606840F4605060606068A96815
:1007C00020F0F000084360602878C00744D06868D3
:1007D000012816D02168022816D0890700294CDA92
:1007E000616821F0030101436160FFF74DFE696814
:1007F000074641F2883001290ED00229814618D0DF
:1008000026E021688903E9E78901E7E7FFF73CFE75
:10081000C11B494501D918E081466068C0F38100D9
:100820000128F3D118E000BFFFF72EFEC11B494598
:100830000BD86068C0F381000228F5D10CE000BF3E
:10084000FFF722FEC11B494502D90320BDE8F0870E
:10085000606810F00C0FF3D1D8F80010404601F09A
:100860000701B1420BD9016821F007013143016052
:10087000006800F00700B04201D00120E6E72878C8
:10088000400705D56068E96820F4E06008436060CF
:100890002878000706D56068296920F4605040EA8E
:1008A000C100606000F026F86168084AC1F30311D6
:1008B000515CC840064908600020FFF705FE002093
:1008C000C4E700000020024000100240281A00087F
:1008D0005C0000200448054900684968044AC1F3E7
:1008E000C221515CC84070475C00002000100240EB
:1008F000381A000812A185B00FC98DE80F0014A0A6
:10090000144A006804905168134801F00C03042B4A
:1009100010D0082B0ED1C1F38343C9031DF8030087
:100920000AD5516804AAC1F34041515C0A4A5043B8
:10093000B0FBF1F005B0704708494843FAE7000002
:1009400002030405060708090A0B0C0D0E0F101010
:10095000010200000010024000127A0000093D0070
:100960002DE9F84F04460078B94DC00748D06868B3
:10097000C0F38100012807D06868C0F38100022815
:1009800009D16868C00306D52868800338D5606837
:1009900000286FD034E06068B0F5803F0BD010B114
:1009A000B0F5A02F11D0286820F480302860286886
:1009B00020F4802002E0286840F4803028606068DD
:1009C00088B1FFF761FD064609E0286840F4802001
:1009D0002860F0E7FFF758FD801B642875D8286869
:1009E0008003F7D50CE0FFF74FFD064605E000BF9A
:1009F000FFF74AFD801B6428F0D828688003F7D4ED
:100A00002078944E80074FF001094FF000083BD545
:100A1000686810F00C0F07D06868C0F381000228E6
:100A200009D16868C00306D42868800714D52069F6
:100A300001281FD110E02069B0B1C6F80090FFF77F
:100A400023FD074605E000BFFFF71EFDC01B02287F
:100A5000C4D828688007F7D52868616920F0F800B5
:100A600040EAC10028600FE0C6F80080FFF70CFDE7
:100A7000074606E0E9E000BFFFF706FDC01B0228BD
:100A800023D828688007F7D4207800072CD572482F
:100A9000A169D9B1C0F80090FFF7F6FC074604E061
:100AA000FFF7F2FCC01B02280FD8686A8007F7D551
:100AB0006A484FF4FA510068B0FBF1F0009000BFB3
:100AC0000098411E0091FAD20EE080E0C0F800804C
:100AD000FFF7DAFC074604E0FFF7D6FCC01B02284C
:100AE00075D8686A8007F7D42078400760D5E86930
:100AF0000027C00008D4E86940F08050E861E86948
:100B0000012700F08050009055480168C90513D4B2
:100B10000168834641F480710160FFF7B5FC8246AD
:100B200006E000BFFFF7B0FCA0EB0A0064284ED837
:100B3000DBF80000C005F5D5E06801280AD008B14F
:100B4000052813D0286A20F001002862286A20F0C6
:100B5000040002E0286A40F001002862E06841F2E7
:100B6000883B98B1FFF790FC82460BE0286A40F082
:100B700004002862EEE700BFFFF786FCA0EB0A0145
:100B800059455AD8286A8007F6D50CE0FFF77CFC57
:100B9000824605E0FFF778FCA0EB0A0159454CD8E6
:100BA000286A8007F6D41FB1E86920F08050E86118
:100BB000E06988B36968C1F38101022945D0022840
:100BC000C6F8608004D0FFF75FFC044638E034E0EC
:100BD000FFF75AFC074604E0FFF756FCC01B02284B
:100BE0002BD828688001F7D4206AB0F5803F05D162
:100BF0006868A16820F4003008436860D4E90801FF
:100C00000843696821F4741108436860C6F860906D
:100C1000FFF73AFC044606E015E000BFFFF734FC9E
:100C2000001B022809D828688001F7D50BE000BF17
:100C3000FFF72AFC001B022802D90320BDE8F88F29
:100C400028688001F4D40020F8E70120F6E70000CE
:100C50000010024000004242800442425C0000203A
:100C600000700040F8B505004FF0000016460C4635
:100C7000009006D02CB100226946284600F019F8F1
:100C800008B10120F8BD287B2070E87BE070697B0B
:100C90006170A97BA17056B100F069FCE0706078CA
:100CA00000F065FC6070A07800F061FCA07000208E
:100CB000F8BD2DE9F04791460C465FEA00084AD09E
:100CC00084B3D8F800004068400744D4404600F0A0
:100CD000EDFC4FF461620546B0FBF2F1B0FBF2F3BC
:100CE00002FB13503C23B0FBF3F0B5FBF2F660704F
:100CF00002FB1650B0FBF3F203FB1200A0701829A0
:100D000031D31820B1FBF0F7B1FBF0F200FB121069
:100D10002070404600F0C3FC411C04D0A84202D918
:100D2000461B02E017E04FF0FF36A7EB071000EB81
:100D30004000C0EB001005EBC0152946404600F00E
:100D400004FD40B9701C01D0711900E031464046E5
:100D500000F0E7FC10B10120BDE8F08739464046BD
:100D600000F010FC00E02170B9F1000F0BD02078EA
:100D700000F0FDFB2070607800F0F9FB6070A07857
:100D800000F0F5FBA0700020E6E7000070B504005D
:100D900003D0607C002610B105E0012070BD2674F0
:100DA000204600F043F802206074204600F010F95D
:100DB000042578BB204600F03CFC58BB2068416805
:100DC00021F007014160A06820B11748016821F0B7
:100DD000010101601448001F0168A26821F46071DC
:100DE000114301606068411C04D10120FFF7E2FB60
:100DF00080B1401E21688A6822F00F0242EA104248
:100E00008A602168CA6860F30F02CA60204600F059
:100E10002BFC08B16574C0E7E67301206073A07312
:100E20006074002070BD0000306C004008B50068A0
:100E3000084988420DD1FFF7B7FB0748C16941F067
:100E40000061C161C069054900F0006000900120A7
:100E5000086008BD00280040001002403C044242E7
:100E60002DE9F0410D4604003BD0C5B3207C01289C
:100E70003AD04FF0010884F8108002206074E878BE
:100E800072B300F06BFBE073687800F067FB60738F
:100E9000A87800F063FBA073C2B2617BE07B00F036
:100EA00015FC20732870204600F000FC4FF46161AF
:100EB000B0FBF1F1002518292DD91822B1FBF2F170
:100EC000A1EB011101EB4101C1EB011100EBC116D6
:100ED0003146204600F039FC0427C8B90BE000E099
:100EE00004E00120BDE8F0810220FBE7E0736878B0
:100EF0006073A878CFE7204600F0D1FB411C0AD0F0
:100F0000B04208D206490144204600F00AFC10B164
:100F100067742574E5E784F8118025740020E1E703
:100F2000805101002DE9F0410D46040024D01DB38D
:100F3000207C012823D04FF0010884F81080022083
:100F400060742878EAB100F009FB4FF4616100FB9E
:100F500001F6687800F002FBC0EB001006EB80069B
:100F6000A87800F0FBFA35182946204600F0EDFB82
:100F70000026042710BB0FE00120BDE8F08102200D
:100F8000FBE74FF4616148436978C1EB011100EB65
:100F90008100A9784518E7E72068416821F005013C
:100FA0004160204600F07BFB411C0AD0A84208D2D9
:100FB00006490144204600F0B4FB10B16774267462
:100FC000DAE784F8118026740020D6E7805101000A
:100FD00070B504000AD02068416821F00801416022
:100FE000FFF752FA05464FF47A7608E0012070BD0B
:100FF000FFF74AFA401BB04201D9032070BD2068B8
:1010000040680007F4D5002070BD10B5401EB0F157
:10101000807F01D3012010BD4FF0E02460610F21DB
:10102000601700F0DCF90020A0610720206100209B
:1010300010BDFEE72DE9F04786B000243748009444
:10104000019402940394816941F0100181618169E6
:1010500001F010010491816941F0200181618169F1
:1010600001F020010491816941F0040181618169ED
:1010700001F004010491816941F0080181618069F6
:10108000DFF89C9000F0080040F2FE460490002239
:1010900031464846FFF7F3F9DFF888A04FF470783F
:1010A000002241465046FFF7EAF94FF4604003251D
:1010B000CDE9000569461C48FFF7FEF849F6013006
:1010C000CDE9000569464846FFF7F6F80096022785
:1010D00001260397CDE9016469464846FFF7ECF81D
:1010E00047F20700CDE90004694650460294FFF735
:1010F000E3F848F63840CDE9000569465046FFF769
:10110000DBF8CDF800800397CDE9016469465046CD
:10111000FFF7D2F806B0BDE8F087000000100240EB
:1011200000080140000C0140001001401CB50024E3
:1011300015480194134900940160611EC0E901142F
:10114000FFF724FE18208DF8040011208DF805000B
:101150008DF80640012201A90B48FFF7E3FE0120AC
:101160008DF8000003208DF8010016208DF8020094
:1011700020208DF80300012269460348FFF770FE26
:101180001CBD00000028004060000020FEE70000B9
:101190002DE9F05F5048DFF84491A0F11E05817BF6
:1011A000E971C17BA971017B6971C07A0026287140
:1011B0004FF0400B05F10A0A0127DFF82481A9F15D
:1011C0003C047BE0206B01282CD1606B002855D1BA
:1011D000297919F81110C9432970697919F8111082
:1011E000C9436970A97919F81110C943A970E9793F
:1011F00019F811008021C043E870AAF800B0AAF8DD
:1012000002104900AAF804104900AAF8061000F0DC
:10121000C9FAA06B401CA0630A2803DDC4E90C676F
:10122000A66304E0206B48BB606B012826D12979B6
:1012300019F81110C9432970697919F81110C943B7
:101240006970A97919F81110C943A970E97919F8D9
:1012500011008021C043E870AAF800B0AAF802107B
:10126000AAF80460AAF8066000F09CFAA06B401C83
:10127000A0630A2802DDC4E90C76A6634FF480510E
:101280004046FFF7F7F82061012801D010B104E0D3
:10129000A06102E0A169012915D060780A21B0FBA4
:1012A000F1F2AA71B0FBF1F201FB1200E8714FF408
:1012B00080414046FFF7DEF8801C08D0206A0128F4
:1012C00080D1BDE8F09F6178491C6170E0E700F0D3
:1012D00051FAC4E90876F4E7920000203C000020AF
:1012E000000C01402DE9F047394D3A48394CE97A74
:1012F0003C3C002610F811100127CA43A5F11E013D
:1013000001F10A080A702A7B4FF480794FF4007AC1
:1013100010F81220D2434A70AA7B10F81220D24350
:101320008A70EA7B10F81200C043C870206B012855
:1013300016D1606B58BB4021A8F800108021A8F896
:101340000210A8F80490A8F806A000F02BFAA06BF1
:10135000401CA0630A2803DDC4E90C67A66304E00F
:10136000206BA0B9606B012811D1A8F80060A8F823
:101370000260A8F80490A8F806A000F013FAA06B89
:10138000401CA0630A2802DDC4E90C76A6634FF472
:1013900080511148FFF76EF8206110B16661BDE819
:1013A000F087606901280BD0287B401CC0B22873ED
:1013B0002178491C21700928F1D167612E73EEE76D
:1013C000E87A401CE8722078401C2070E7E70000B3
:1013D000920000203C000020000C014070470907EB
:1013E000090E002806DA00F00F0000F1E02080F876
:1013F000141D704700F1E02080F8001470470000D1
:101400000B480021426A062A0CD2DFE802F00306EC
:10141000080A0C0E016200F0DFBA00F0BFBA00F05B
:1014200057BA41627047FFF7B3BEFFF75BBF0000DA
:1014300000000020704700002DE9F047454F4FF4B1
:10144000005631463846FFF715F8434C3146A07038
:101450003846FFF70FF8012568B9A07858B9E17848
:10146000012908D1616A042905DAA26A1AB9491C5E
:101470006162E070A56231463846FEF7FBFF68B94D
:10148000A07858B9E178012908D1616A042905D109
:10149000E16919B905216162E070E561B146314643
:1014A000B8463846FEF7E6FF0427002608B9A078BC
:1014B00018B1A07801280CD016E0E178012913D1E9
:1014C000616A052910D1E16971B96762E070E5616F
:1014D0000AE0E07840B949464046FEF7CBFF0128D4
:1014E00002D1E570A662E6614FF480494946404664
:1014F000FEF7C0FF207149464046FEF7BBFF08B922
:10150000217979B1207901280AD16079002807D1A1
:1015100049464046FEF7AEFF012801D16571E662FB
:10152000BDE8F08760790128FAD1E26A606A52EA80
:10153000000301D02AB108E06762E562C4E90C56F5
:1015400003E0042803D0052801D06171E8E7666252
:10155000E562FAE7000C014000000020010901EB00
:10156000810100F00F0000EB4100C0B27047002184
:1015700002E00A38C0B2491C0A28FAD2090740EA38
:10158000116070472DE9F04104460025C07B627B65
:10159000A37B42E0012A16D0032A14D0052A12D0D8
:1015A000072A10D0082A0ED00A2A0CD00C2A0AD0FA
:1015B000042A10D0062A0ED0092A0CD00B2A0AD0F1
:1015C000022A0DD028E01F2B0CD30C2A05D10122B2
:1015D0001346401C20E01E2B04D30123521C1BE0A9
:1015E0001C2B02D203F1010316E011D183B29E0736
:1015F00010D16426B3FBF6F706FB173636B94FF465
:10160000C876B3FBF6F706FB17331BB91D2303E0BF
:101610001D2B01D1032201236D1C8D42BAD3D1B2FF
:10162000E0736173DAB2A27300F050F82073BDE882
:10163000F08170B50446FEF727FF05464FF47A7631
:1016400006E0FEF721FF401BB04201D9032070BD28
:10165000206840688006F4D52068416841F0100198
:101660004160002070BD000070B50446006841680C
:1016700021F010014160FEF707FF05464FF47A762E
:1016800007E000BFFEF700FF401BB04201D9032076
:1016900070BD206840688006F4D5002070BD0168E8
:1016A000086A496A89B241EA004070470068816966
:1016B0008AB2C1698BB2816989B28A4203D0C0699A
:1016C00061F31F40704743EA02407047F0B564245D
:1016D000C1EBC1030927A500072603EB011303296A
:1016E000B3FBF7F100F5FA60114401440AD2401E41
:1016F000B0FBF4F201EB9001B0FBF5F0891A08445D
:10170000001D08E0B0FBF4F201EB9001B0FBF5F036
:10171000891A0844801CB0FBF6F106FB1100C0B228
:10172000F0BD70B50D4606460024FFF782FF48B9AC
:101730003168280C08623168A8B248623046FFF769
:1017400093FF00B10124204670BD70B50D460646DA
:101750000024FFF76EFF48B93168280C88613168B2
:10176000A8B2C8613046FFF77FFF00B101242046D0
:1017700070BD7047094B10B55878FEF701FD074C56
:10178000A41D20701878FEF7FBFC60702146BDE8B0
:10179000104001220248FFF7C5BB000000000020F6
:1017A000600000202DE9F041114C124DE0782860D6
:1017B00004F10A06104F308838600520FEF76AFDF4
:1017C000A0782860708838600520FEF763FD607897
:1017D0002860B08838600520FEF75CFD207828601E
:1017E000F0883860BDE8F0410520FEF753BD0000E9
:1017F000740000200C0801400C0C0140FEF74ABEAA
:1018000070B594B028216846FEF793FC14210AA80D
:10181000FEF78FFC00240F940920012510940090FE
:10182000119412944FF4803004950695CDE901048B
:101830000226CDE907604FF4E01009906846FFF7F3
:101840008FF80F20CDE90A06A802CDE90C4002214D
:101850000AA80E94FEF788FF6802CDE90F500FA882
:10186000FEF70CFF14B070BD0D48016841F0010196
:10187000016041680B4A1140416001680A4A114009
:101880000160016821F480210160416821F4FE01BA
:1018900041604FF41F0181600449C0030860704734
:1018A000001002400000FFF8FFFFF6FE08ED00E028
:1018B000FEE702E008C8121F08C1002AFAD17047EB
:1018C0007047002001E001C1121F002AFBD17047C0
:1018D00010B50020FEF74AFC0D4A10700020FEF7FC
:1018E00045FC50700020FEF741FC90700020FEF790
:1018F0003DFCD070064840210A30018080214180A3
:10190000490081804900C180BDE81040FFF74ABF0F
:10191000740000202DE9F041154C2078182825D1BD
:101920006078144E4FF480654FF47A7712280DD109
:10193000A07800281AD1012229463046FEF79FFDE3
:101940003846FEF7A7FC207818280FD16078502879
:101950000CD1A078102809D1002229463046FEF784
:101960008EFD3846BDE8F041FEF794BCBDE8F0813D
:101970000600002000080140FEF794FDFFF740FF3D
:10198000FFF758FBFFF7D2FBFEF706FCFFF738FD29
:10199000FFF752FDFFF7BEFFF6E700000C4A0D4BC4
:1019A000507C13F81000C143A2F11E000170927C1C
:1019B00013F81220D24342708170C2700A30402165
:1019C00001808021418000218180C180FFF7EABE33
:1019D000920000203C00002011481249C27A11F800
:1019E0001220D343A0F11E021370037B11F81330B1
:1019F000DB435370837B11F81330DB439370C07B60
:101A000011F810004021C043D07002F10A0001809B
:101A100080214180490081804900C180FFF7C2BE1A
:101A2000920000203C0000200000000000000000A8
:101A30000102030406070809000000000102030474
:101A4000601A00080000002060000000B2180008C2
:101A5000C01A00086000002048040000C2180008F6
:101A60000000000000000000000000000000000076
:101A70000000000000000000000000000000000066
:101A80000000000000000000000000000000000056
:101A90000000000000000000000000007E000C00BC
:101AA000B6009E00CC00DA00F8000E00FE00CE006A
:101AB00001000000100000000000000000A24A0425
:04000005080000ED02
:00000001FF
