:020000040800F2
:1000000080040020010100086B1100080F10000897
:10001000691100087F010008891400080000000031
:10002000000000000000000000000000A313000812
:1000300097010008000000008D110008D51300088A
:100040001B0100081B0100081B0100081B01000820
:100050001B0100081B0100081B0100081B01000810
:100060001B0100081B0100081B0100081B01000800
:100070001B0100081B0100081B0100081B010008F0
:100080001B0100081B0100081B0100081B010008E0
:100090001B0100081B0100081B0100081B010008D0
:1000A0001B0100081B0100081B0100081B010008C0
:1000B0001B0100081B0100081B0100081B010008B0
:1000C0001B0100081B0100081B0100081B010008A0
:1000D0001B0100081B0100081B0100081B01000890
:1000E0001B0100081B0100081B010008DFF80CD0F1
:1000F00000F02AF8004800471D1500088004002081
:100100000648804706480047FEE7FEE7FEE7FEE7B1
:10011000FEE7FEE7FEE7FEE7FEE7FEE74114000824
:10012000ED000008D2B201E000F8012B491EFBD21D
:1001300070470022F6E710B513460A4604461946F2
:10014000FFF7F0FF204610BD064C074D06E0E068C3
:1001500040F0010394E8070098471034AC42F6D30E
:10016000FFF7C8FF001700082017000800F00F0174
:10017000000900EB800001EB4000C0B27047FEE7D1
:100180000A21B0FBF1F201FB1202B0FBF1F042EAEE
:100190000010C0B27047704710B501223249334891
:1001A00000F075FD30490122C91C304800F048FDBF
:1001B0002D4CE41CA078FFF7D9FF0A22B0FBF2F027
:1001C0002A4B14331870A078FFF7D0FFB0FBF2F180
:1001D00002FB110058706078FFF7C8FFB0FBF2F027
:1001E000D8706078FFF7C2FFB0FBF2F102FB11009C
:1001F0001871E078FFF7BAFFB0FBF2F01872E07800
:10020000FFF7B4FFB0FBF2F102FB1100E41E5872DD
:100210002078FFF7ABFFB0FBF2F0D8722078FFF741
:10022000A5FFB0FBF2F102FB110018736078FFF735
:100230009DFFB0FBF2F098736078FFF797FFB0FB7B
:10024000F2F102FB1100D873A078FFF78FFFB0FB2B
:10025000F2F05874A078FFF789FFB0FBF2F102FBCF
:100260001100987410BD00000A0000205800002002
:1002700070B5044600F0F6F80546601C02D004484C
:100280000078044400F0EEF8401BA042FAD370BDA1
:10029000480000202DE9F84FDFF890A100220AF174
:1002A000040B144601274FF00F090BF1040E00BF99
:1002B0000B6807FA04F52B40AB4274D1DFF870C12C
:1002C0004E68A6EB0C0866452BD00DDC032E34D00F
:1002D00005DC36B3012E19D0022E2FD11BE0112ED2
:1002E00016D0122E2AD119E0B8F5881F19D006DCD5
:1002F000B8F5803F15D0B8F5801F1FD111E0B8F5D3
:10030000001F0ED0B8F5041F18D10AE0CA6815E026
:10031000CA68121D12E0CA6808320FE0CA680C32BF
:100320000CE08A682AB1012A4FF0080203D0456127
:1003300004E0042202E0056100E00022FF2B01D866
:10034000064601E000F104064FEA840501D9A5F153
:100350002005D6F800C009FA05F82CEA080C02FAC4
:1003600005F54CEA050CC6F800C04D68ED0057D500
:10037000304DAE6946F00106AE61AD6924F003066A
:1003800005F0010500952C4D06EB050CDCF8085036
:10039000A6074FEA167809FA08F6B543274EB04289
:1003A00002D1002610E03BE0254EB04201D10126EB
:1003B0000AE0244EB04201D1022605E0224EB042AE
:1003C00001D1032600E0042606FA08F62E43CCF8F5
:1003D00008604D68DAF80060ED03554601D51E430C
:1003E00000E09E432E604D68DBF80060AD035D4683
:1003F00001D51E4300E09E432E604D68DEF800608C
:10040000ED02754601D51E4300E09E432E604D6807
:10041000AD020E4D2E6801D51E4300E09E432E60B6
:10042000641C102CFFF444AFBDE8F88F00040140B9
:1004300000001110001002400000014000080140BF
:10044000000C014000100140001401400C04014068
:100450008068084000D0012070470AB101617047F0
:100460000904FBE70148806870470000480000204D
:10047000024881680278114481607047480000207A
:10048000074810B5016841F010010160032000F039
:1004900067F8002000F006F800F024F8002010BDF6
:1004A0000020024070B50D4D04464FF47A71287853
:1004B000B1FBF0F00A490968B1FBF0F000F093FDE0
:1004C00048B9102C07D200222146501E00F028F80F
:1004D00000206C6070BD012070BD0000480000204D
:1004E000540000200C4808B5816941F00101816188
:1004F000816901F001010091C16941F08051C16140
:10050000C06900F0805000900448416821F0E0612B
:1005100041F00071416008BD001002400000014040
:10052000F0B40E4B1B680C46C3F30223C3F107055E
:10053000042D00D90425191D072901D2002300E04C
:10054000DB1E012606FA05F1491E214099409E4016
:10055000761E16403143F0BC00F008BE0CED00E002
:10056000064900F0070208684FF6FF03184040EA0A
:100570000220034A10430860704700000CED00E0C1
:100580000000FA05014901200862704700000E4290
:1005900010B529A401461DCC86B08DE81D002AA007
:1005A0002A4C006804900020012923D002293AD067
:1005B00010291DD161682268D20119D5C1F3834287
:1005C000C9031DF8020009D5616804AAC1F34041BE
:1005D000515C1F4AB2FBF1F1484301E01D49484319
:1005E0006168490204D440005FF00301B0FBF1F000
:1005F00006B010BD226AC2F30121012903D192077E
:1006000001D5C803F4E7022905D1626A920702D531
:1006100049F64040ECE70329EAD121688903E7D590
:100620004FF22440E4E700F043F96168C1F38131FF
:10063000491C4900DAE7000002030405060708091F
:100640000A0B0C0D0E0F10100102000000100240EA
:1006500000127A0000093D002DE9F84305460078B4
:10066000354CC00754D0E0690026C00008D4E069CA
:1006700040F08050E061E069012600F08050009079
:100680002E480168C90512D40168804641F4807182
:100690000160FFF7E7FE074605E000BFFFF7E2FE57
:1006A000C01B642823D8D8F80000C005F6D5206AFE
:1006B00010F4407021D0A98801F4407181421CD00F
:1006C000206A1F49012220F440700A6000220A605B
:1006D0002062C00711D0FFF7C5FE074641F28838F7
:1006E00008E000BFFFF7BEFEC11B414502D9032051
:1006F000BDE8F883206A8007F4D5206A696820F491
:100700004070084320621EB1E06920F08050E06133
:100710002878800705D56068A96820F44040084320
:1007200060602878C00605D56068E96820F480001C
:10073000084360600020DBE70010024000700040CA
:10074000400442422DE9F047DFF8548105460E4649
:10075000D8F8000000F00700B0420CD2D8F8001022
:1007600021F007013143C8F80010D8F8000000F06C
:100770000700B0426FD128684A4C810712D5400764
:1007800003D5606840F4E06060602878000703D516
:10079000606840F4605060606068A96820F0F00014
:1007A000084360602878C00744D06868012816D0E4
:1007B0002168022816D0890700294CDA616821F0E7
:1007C000030101436160FFF74DFE6968074641F28E
:1007D000883001290ED00229814618D026E02168F0
:1007E0008903E9E78901E7E7FFF73CFEC11B4945BB
:1007F00001D918E081466068C0F381000128F3D177
:1008000018E000BFFFF72EFEC11B49450BD86068FA
:10081000C0F381000228F5D10CE000BFFFF722FEF3
:10082000C11B494502D90320BDE8F087606810F07C
:100830000C0FF3D1D8F80010404601F00701B14287
:100840000BD9016821F0070131430160006800F015
:100850000700B04201D00120E6E72878400705D51F
:100860006068E96820F4E060084360602878000769
:1008700006D56068296920F4605040EAC1006060D4
:1008800000F026F86168084AC1F30311515CC840C2
:10089000064908600020FFF705FE0020C4E70000BD
:1008A0000020024000100240E8160008540000201A
:1008B0000448054900684968044AC1F3C221515CF3
:1008C000C84070475400002000100240F81600088D
:1008D00012A185B00FC98DE80F0014A0144A00685A
:1008E00004905168134801F00C03042B10D0082B1E
:1008F0000ED1C1F38343C9031DF803000AD5516823
:1009000004AAC1F34041515C0A4A5043B0FBF1F0E4
:1009100005B0704708494843FAE7000002030405A0
:10092000060708090A0B0C0D0E0F1010010200003B
:100930000010024000127A0000093D002DE9F84F36
:1009400004460078B94DC00748D06868C0F38100FC
:10095000012807D06868C0F38100022809D16868BF
:10096000C00306D52868800338D5606800286FD09A
:1009700034E06068B0F5803F0BD010B1B0F5A02F27
:1009800011D0286820F480302860286820F4802066
:1009900002E0286840F480302860606888B1FFF782
:1009A00061FD064609E0286840F480202860F0E7F1
:1009B000FFF758FD801B642875D828688003F7D599
:1009C0000CE0FFF74FFD064605E000BFFFF74AFDCC
:1009D000801B6428F0D828688003F7D42078944ED0
:1009E00080074FF001094FF000083BD5686810F010
:1009F0000C0F07D06868C0F38100022809D168682D
:100A0000C00306D42868800714D5206901281FD1A7
:100A100010E02069B0B1C6F80090FFF723FD07464B
:100A200005E000BFFFF71EFDC01B0228C4D82868E0
:100A30008007F7D52868616920F0F80040EAC10016
:100A400028600FE0C6F80080FFF70CFD074606E0BF
:100A5000E9E000BFFFF706FDC01B022823D8286885
:100A60008007F7D4207800072CD57248A169D9B146
:100A7000C0F80090FFF7F6FC074604E0FFF7F2FC31
:100A8000C01B02280FD8686A8007F7D56A484FF460
:100A9000FA510068B0FBF1F0009000BF0098411ED1
:100AA0000091FAD20EE080E0C0F80080FFF7DAFC97
:100AB000074604E0FFF7D6FCC01B022875D8686A19
:100AC0008007F7D42078400760D5E8690027C00088
:100AD00008D4E86940F08050E861E869012700F037
:100AE0008050009055480168C90513D401688346B9
:100AF00041F480710160FFF7B5FC824606E000BF5B
:100B0000FFF7B0FCA0EB0A0064284ED8DBF8000029
:100B1000C005F5D5E06801280AD008B1052813D032
:100B2000286A20F001002862286A20F0040002E010
:100B3000286A40F001002862E06841F2883B98B1E1
:100B4000FFF790FC82460BE0286A40F00400286220
:100B5000EEE700BFFFF786FCA0EB0A0159455AD823
:100B6000286A8007F6D50CE0FFF77CFC824605E09A
:100B7000FFF778FCA0EB0A0159454CD8286A80079A
:100B8000F6D41FB1E86920F08050E861E06988B3CD
:100B90006968C1F38101022945D00228C6F8608046
:100BA00004D0FFF75FFC044638E034E0FFF75AFC5E
:100BB000074604E0FFF756FCC01B02282BD8286824
:100BC0008001F7D4206AB0F5803F05D16868A1683C
:100BD00020F4003008436860D4E9080108436968DC
:100BE00021F4741108436860C6F86090FFF73AFC7E
:100BF000044606E015E000BFFFF734FC001B0228A6
:100C000009D828688001F7D50BE000BFFFF72AFC60
:100C1000001B022802D90320BDE8F88F2868800154
:100C2000F4D40020F8E70120F6E7000000100240AD
:100C30000000424280044242540000200070004004
:100C4000F8B505004FF0000016460C46009006D09F
:100C50002CB100226946284600F019F808B101209D
:100C6000F8BD287B2070E87BE070697B6170A97B10
:100C7000A17056B100F094FAE070607800F090FA3C
:100C80006070A07800F08CFAA0700020F8BD2DE90B
:100C9000F04791460C465FEA00084AD084B3D8F882
:100CA00000004068400744D4404600F017FB4FF472
:100CB00061620546B0FBF2F1B0FBF2F302FB1350A8
:100CC0003C23B0FBF3F0B5FBF2F6607002FB16506C
:100CD000B0FBF3F203FB1200A070182931D31820E7
:100CE000B1FBF0F7B1FBF0F200FB121020704046B0
:100CF00000F0EDFA411C04D0A84202D9461B02E0E4
:100D000017E04FF0FF36A7EB071000EB4000C0EBF9
:100D1000001005EBC0152946404600F02EFB40B9F7
:100D2000701C01D0711900E03146404600F011FB03
:100D300010B10120BDE8F0873946404600F03BFA8B
:100D400000E02170B9F1000F0BD0207800F028FAF4
:100D50002070607800F024FA6070A07800F020FA2B
:100D6000A0700020E6E7000070B5040003D0607CAE
:100D7000002610B105E0012070BD2674204600F069
:100D800043F802206074204600F010F9042578BB77
:100D9000204600F067FA58BB2068416821F007013F
:100DA0004160A06820B11748016821F0010101608D
:100DB0001448001F0168A26821F4607111430160AA
:100DC0006068411C04D10120FFF7E2FB80B1401EA6
:100DD00021688A6822F00F0242EA10428A60216884
:100DE000CA6860F30F02CA60204600F055FA08B1E5
:100DF0006574C0E7E67301206073A073607400201F
:100E000070BD0000306C004008B500680849884299
:100E10000DD1FFF7B7FB0748C16941F00061C1611F
:100E2000C069054900F0006000900120086008BD1D
:100E300000280040001002403C0442422DE9F041ED
:100E40000D4604003BD0C5B3207C01283AD04FF0BA
:100E5000010884F8108002206074E87872B300F012
:100E600096F9E073687800F092F96073A87800F062
:100E70008EF9A073C2B2617BE07B00F03FFA207371
:100E80002870204600F02AFA4FF46161B0FBF1F1BE
:100E9000002518292DD91822B1FBF2F1A1EB01117F
:100EA00001EB4101C1EB011100EBC11631462046B7
:100EB00000F063FA0427C8B90BE000E004E0012069
:100EC000BDE8F0810220FBE7E07368786073A878E2
:100ED000CFE7204600F0FBF9411C0AD0B04208D20F
:100EE00006490144204600F034FA10B167742574B5
:100EF000E5E784F8118025740020E1E780510100C6
:100F00002DE9F0410D46040024D01DB3207C0128BA
:100F100023D04FF0010884F81080022060742878F4
:100F2000EAB100F034F94FF4616100FB01F6687832
:100F300000F02DF9C0EB001006EB8006A87800F059
:100F400026F935182946204600F017FA002604270E
:100F500010BB0FE00120BDE8F0810220FBE74FF459
:100F6000616148436978C1EB011100EB8100A97808
:100F70004518E7E72068416821F0050141602046F7
:100F800000F0A5F9411C0AD0A84208D20649014444
:100F9000204600F0DEF910B167742674DAE784F8B1
:100FA000118026740020D6E78051010070B504003E
:100FB0000AD02068416821F008014160FFF752FA29
:100FC00005464FF47A7608E0012070BDFFF74AFA33
:100FD000401BB04201D9032070BD20684068000763
:100FE000F4D5002070BD10B5401EB0F1807F01D354
:100FF000012010BD4FF0E02460610F21601700F068
:10100000B5F80020A06107202061002010BDFEE798
:101010002DE9F04786B000243748009401940294EB
:101020000394816941F010018161816901F010012F
:101030000491816941F020018161816901F0200101
:101040000491816941F004018161816901F0040129
:101050000491816941F0080181618069DFF89C9009
:1010600000F0080040F2FE46049000223146484657
:10107000FFF7F3F9DFF888A04FF4707800224146BB
:101080005046FFF7EAF94FF460400325CDE900052B
:1010900069461C48FFF7FEF849F60130CDE9000526
:1010A00069464846FFF7F6F800960227012603979F
:1010B000CDE9016469464846FFF7ECF847F20700BE
:1010C000CDE90004694650460294FFF7E3F848F67C
:1010D0003840CDE9000569465046FFF7DBF8CDF80A
:1010E00000800397CDE9016469465046FFF7D2F8C6
:1010F00006B0BDE8F0870000001002400008014083
:10110000000C0140001001401CB50024154801945A
:10111000134900940160611EC0E90114FFF724FE29
:1011200018208DF8040011208DF805008DF8064078
:10113000012201A90B48FFF7E3FE01208DF8000012
:1011400003208DF8010016208DF8020020208DF874
:101150000300012269460348FFF770FE1CBD000032
:101160000028004058000020FEE770470907090EDC
:10117000002806DA00F00F0000F1E02080F8141DCE
:10118000704700F1E02080F80014704770470109B3
:1011900001EB810100F00F0000EB4100C0B270478D
:1011A000002102E00A38C0B2491C0A28FAD2090715
:1011B00040EA116070472DE9F04104460025C07BEC
:1011C000627BA37B42E0012A16D0032A14D0052AB1
:1011D00012D0072A10D0082A0ED00A2A0CD00C2AC6
:1011E0000AD0042A10D0062A0ED0092A0CD00B2AC5
:1011F0000AD0022A0DD028E01F2B0CD30C2A05D1CF
:1012000001221346401C20E01E2B04D30123521C54
:101210001BE01C2B02D203F1010316E011D183B2B3
:101220009E0710D16426B3FBF6F706FB173636B9D6
:101230004FF4C876B3FBF6F706FB17331BB91D2333
:1012400003E01D2B01D1032201236D1C8D42BAD373
:10125000D1B2E0736173DAB2A27300F04FF8207379
:10126000BDE8F08170B50446FFF7FCF805464FF481
:101270007A7606E0FFF7F6F8401BB04201D903206A
:1012800070BD206840688006F4D52068416841F050
:1012900010014160002070BD70B5044600684168CF
:1012A00021F010014160FFF7DDF805464FF47A7632
:1012B00007E000BFFFF7D6F8401BB04201D903207A
:1012C00070BD206840688006F4D5002070BD0168BC
:1012D000086A496A89B241EA00407047006881693A
:1012E0008AB2C1698BB2816989B28A4203D0C0696E
:1012F00061F31F40704743EA02407047F0B5642431
:10130000C1EBC1030927A500072603EB011303293D
:10131000B3FBF7F100F5FA60114401440AD2401E14
:10132000B0FBF4F201EB9001B0FBF5F0891A084430
:10133000001D08E0B0FBF4F201EB9001B0FBF5F00A
:10134000891A0844801CB0FBF6F106FB1100C0B2FC
:10135000F0BD70B50D4606460024FFF783FF48B97F
:101360003168280C08623168A8B248623046FFF73D
:1013700093FF00B10124204670BD70B50D460646AE
:101380000024FFF76FFF48B93168280C8861316885
:10139000A8B2C8613046FFF77FFF00B101242046A4
:1013A00070BD7047094B10B55878FEF7E9FE074C41
:1013B0000A3420701878FEF7E3FE60702146BDE81D
:1013C000104001220248FFF79BBD000000000020F2
:1013D00058000020FFF74CB870B594B0282168463B
:1013E000FEF7A7FE14210AA8FEF7A3FE00240F941F
:1013F0000920012510940090119412944FF480302C
:1014000004950695CDE901040226CDE907604FF465
:10141000E01009906846FFF791FA0F20CDE90A061F
:10142000A802CDE90C4002210AA80E94FFF78AF920
:101430006802CDE90F500FA8FFF70EF914B070BD88
:101440000D48016841F00101016041680B4A1140FB
:10145000416001680A4A11400160016821F480215D
:101460000160416821F4FE0141604FF41F01816079
:101470000449C00308607047001002400000FFF8F4
:10148000FFFFF6FE08ED00E0FEE702E008C8121FCD
:1014900008C1002AFAD170477047002001E001C15D
:1014A000121F002AFBD170472DE9F041184C002093
:1014B00004F13405A070E070207160712888154E29
:1014C000C0433060144F402038600520FEF7D0FE46
:1014D000E07835F81000C043306080203860052087
:1014E000FEF7C6FEA07835F81000C0433060B01596
:1014F00038600520FEF7BCFEE07835F81000C043E8
:10150000306070153860BDE8F0410520FEF7B0BED0
:10151000000000200C0801400C0C0140FEF7B0FF59
:10152000FFF75AFFFFF774FDFFF7EEFD4FF4005988
:10153000324E4FF4804A04274FF001080025304C0A
:10154000FEF72AFE49463046FEF782FFA07110B131
:1015500001280ED014E0E179012911D1A16A0429F2
:101560000EDAE26A62B9491CA162E071C4F82C800B
:1015700006E0E17921B9E16A012901D1E071E56272
:1015800051463046FEF764FF207210B1012814D096
:101590001AE0617A012917D1216BA9B9A16A21B199
:1015A000042903D0052903D003E0A7620521A16225
:1015B000A7626072C4F8308006E0617A21B9216BBD
:1015C000012901D160722563A06A38B92562606A79
:1015D000012801D1FFF7E6FE00F04EF8A06A0128CD
:1015E00001D100F00FF8A06A022801D1FFF75CFFDB
:1015F000A06A0328A4D1A562A2E70000000C014064
:10160000000000202DE9F041174C184D184EA07C29
:1016100035F81000C0433060164F40203860052078
:10162000FEF726FE607C35F81000C0433060802055
:1016300038600520FEF71CFE207B35F81000C04303
:1016400030604FF00008C7F800800520FEF710FE5C
:10165000E07A35F81000C0433060C7F80080BDE87C
:10166000F0410520FEF704BE6C000020340000208D
:101670000C0801400C0C01402DE9F041164C174DAF
:10168000174EE07B35F81000C0433060154F402006
:1016900038600520FEF7ECFDA07B35F81000C04354
:1016A0003060802038600520FEF7E2FD207B35F8B1
:1016B0001000C0433060B01538600520FEF7D8FD3B
:1016C000E07A35F81000C043306070153860BDE82E
:1016D000F0410520FEF7CCBD6C0000203400002056
:1016E0000C0801400C0C014000000000000000004C
:1016F00001020304060708090000000001020304B8
:101700002017000800000020580000008A1400087C
:101710007817000858000020280400009A140008D8
:1017200000000000000000000000000000000000B9
:1017300000000000000000000000000000000000A9
:101740000000000000000000000000000000000099
:10175000000000007E000C00B6009E00CC00DA0005
:10176000F8000E00FE00CE00010000001000000096
:081770000000000000A24A0481
:04000005080000ED02
:00000001FF
